{
  "contractName": "PuzzleFactory",
  "abi": [
    {
      "anonymous": false,
      "inputs": [
        {
          "indexed": true,
          "internalType": "address",
          "name": "puzzleAddress",
          "type": "address"
        },
        {
          "indexed": false,
          "internalType": "uint256",
          "name": "reward",
          "type": "uint256"
        }
      ],
      "name": "LogCreatedPuzzle",
      "type": "event"
    },
    {
      "inputs": [
        {
          "internalType": "string",
          "name": "answer",
          "type": "string"
        }
      ],
      "name": "createPuzzle",
      "outputs": [
        {
          "internalType": "address",
          "name": "",
          "type": "address"
        }
      ],
      "stateMutability": "payable",
      "type": "function",
      "payable": true
    }
  ],
  "bytecode": "0x608060405234801561001057600080fd5b50610536806100206000396000f3fe60806040526004361061001e5760003560e01c80633c67b9e814610023575b600080fd5b61009a6004803603602081101561003957600080fd5b810190808035906020019064010000000081111561005657600080fd5b82018360208201111561006857600080fd5b8035906020019184600183028401116401000000008311171561008a57600080fd5b90919293919293905050506100c6565b604051808273ffffffffffffffffffffffffffffffffffffffff16815260200191505060405180910390f35b60008083836040516020018083838082843780830192505050925050506040516020818303038152906040528051906020012090506000348260405161010b9061018e565b808281526020019150506040518091039082f0905080158015610132573d6000803e3d6000fd5b5090508073ffffffffffffffffffffffffffffffffffffffff167fc001301ad0bbbe1193704c6536ed36c1bb7e1fde32e9634998b5a121cc52966d346040518082815260200191505060405180910390a2809250505092915050565b6103658061019c8339019056fe60806040526040516103653803806103658339818101604052602081101561002657600080fd5b810190808051906020019092919050505080600081905550506103178061004e6000396000f3fe608060405234801561001057600080fd5b506004361061002b5760003560e01c806376fe1e9214610030575b600080fd5b6100e96004803603602081101561004657600080fd5b810190808035906020019064010000000081111561006357600080fd5b82018360208201111561007557600080fd5b8035906020019184600183028401116401000000008311171561009757600080fd5b91908080601f016020809104026020016040519081016040528093929190818152602001838380828437600081840152601f19601f820116905080830192505050505050509192919290505050610101565b60405180821515815260200191505060405180910390f35b60008054826040516020018082805190602001908083835b6020831061013c5780518252602082019150602081019050602083039250610119565b6001836020036101000a03801982511681845116808217855250505050505090500191505060405160208183030381529060405280519060200120141561029d5760003373ffffffffffffffffffffffffffffffffffffffff164760405180600001905060006040518083038185875af1925050503d80600081146101dd576040519150601f19603f3d011682016040523d82523d6000602084013e6101e2565b606091505b5050905080610259576040517f08c379a00000000000000000000000000000000000000000000000000000000081526004018080602001828103825260158152602001807f4661696c656420746f2073656e6420726577617264000000000000000000000081525060200191505060405180910390fd5b7f5e3ac929e22fbde13b81612b73067d4e23e075be53bf8374f41c2db376c76067600160405180821515815260200191505060405180910390a160019150506102dc565b7f5e3ac929e22fbde13b81612b73067d4e23e075be53bf8374f41c2db376c76067600060405180821515815260200191505060405180910390a1600090505b91905056fea264697066735822122075c1e02690d0cde8052eec514fdf2742cc47b15e49bb62e9136007f3338722c564736f6c634300060c0033a26469706673582212207021342cc53e6f575413cd3d69338bfd03354d3bc8ccd8d47192cc81da05e05364736f6c634300060c0033",
  "immutableReferences": {},
  "source": "// SPDX-License-Identifier: MIT\npragma solidity 0.6.12;\nimport \"./Puzzle.sol\";\n\n/// @title A puzzle creator\n/// @author dlsso\n/// @notice Creates a puzzles with a reward of the value sent to it\ncontract PuzzleFactory {\n\n    /// @notice Logs the address and reward amount of the created puzzle\n    /// @param puzzleAddress The address of the created puzzle\n    /// @param reward The amount of the reward in wei\n    event LogCreatedPuzzle(address indexed puzzleAddress, uint reward);\n\n    /// @notice Creates a puzzles with a reward of the value sent to it\n    /// @param answer The answer to the puzzle\n    /// @return The address of the new puzzle\n    function createPuzzle(string calldata answer) external payable returns(address) {\n        bytes32 hashedAnswer = keccak256(abi.encodePacked(answer));\n        // Should deploy Puzzle.sol to a new address and give it whatever value was sent\n        Puzzle newPuzzle = (new Puzzle).value(msg.value)(hashedAnswer);\n        // Emit event for front end\n        emit LogCreatedPuzzle(address(newPuzzle), msg.value);\n        return address(newPuzzle);\n    }\n}\n",
  "sourcePath": "/home/john/bootcamp/blockchain-developer-bootcamp-final-project/contracts/PuzzleFactory.sol",
  "compiler": {
    "name": "solc",
    "version": "0.6.12+commit.27d51765.Emscripten.clang"
  },
  "schemaVersion": "3.4.3",
  "updatedAt": "2022-01-12T15:56:52.795Z",
  "networkType": "ethereum",
  "devdoc": {
    "author": "dlsso",
    "events": {
      "LogCreatedPuzzle(address,uint256)": {
        "params": {
          "puzzleAddress": "The address of the created puzzle",
          "reward": "The amount of the reward in wei"
        }
      }
    },
    "kind": "dev",
    "methods": {
      "createPuzzle(string)": {
        "params": {
          "answer": "The answer to the puzzle"
        },
        "returns": {
          "_0": "The address of the new puzzle"
        }
      }
    },
    "title": "A puzzle creator",
    "version": 1
  },
  "userdoc": {
    "events": {
      "LogCreatedPuzzle(address,uint256)": {
        "notice": "Logs the address and reward amount of the created puzzle"
      }
    },
    "kind": "user",
    "methods": {
      "createPuzzle(string)": {
        "notice": "Creates a puzzles with a reward of the value sent to it"
      }
    },
    "notice": "Creates a puzzles with a reward of the value sent to it",
    "version": 1
  }
}