{
  "contractName": "Puzzle",
  "abi": [
    {
      "inputs": [
        {
          "internalType": "bytes32",
          "name": "answerHash",
          "type": "bytes32"
        }
      ],
      "stateMutability": "payable",
      "type": "constructor"
    },
    {
      "anonymous": false,
      "inputs": [
        {
          "indexed": false,
          "internalType": "bool",
          "name": "success",
          "type": "bool"
        }
      ],
      "name": "LogSolveAttempt",
      "type": "event"
    },
    {
      "inputs": [
        {
          "internalType": "string",
          "name": "guess",
          "type": "string"
        }
      ],
      "name": "solve",
      "outputs": [
        {
          "internalType": "bool",
          "name": "",
          "type": "bool"
        }
      ],
      "stateMutability": "nonpayable",
      "type": "function"
    }
  ],
  "bytecode": "0x60806040526040516103653803806103658339818101604052602081101561002657600080fd5b810190808051906020019092919050505080600081905550506103178061004e6000396000f3fe608060405234801561001057600080fd5b506004361061002b5760003560e01c806376fe1e9214610030575b600080fd5b6100e96004803603602081101561004657600080fd5b810190808035906020019064010000000081111561006357600080fd5b82018360208201111561007557600080fd5b8035906020019184600183028401116401000000008311171561009757600080fd5b91908080601f016020809104026020016040519081016040528093929190818152602001838380828437600081840152601f19601f820116905080830192505050505050509192919290505050610101565b60405180821515815260200191505060405180910390f35b60008054826040516020018082805190602001908083835b6020831061013c5780518252602082019150602081019050602083039250610119565b6001836020036101000a03801982511681845116808217855250505050505090500191505060405160208183030381529060405280519060200120141561029d5760003373ffffffffffffffffffffffffffffffffffffffff164760405180600001905060006040518083038185875af1925050503d80600081146101dd576040519150601f19603f3d011682016040523d82523d6000602084013e6101e2565b606091505b5050905080610259576040517f08c379a00000000000000000000000000000000000000000000000000000000081526004018080602001828103825260158152602001807f4661696c656420746f2073656e6420726577617264000000000000000000000081525060200191505060405180910390fd5b7f5e3ac929e22fbde13b81612b73067d4e23e075be53bf8374f41c2db376c76067600160405180821515815260200191505060405180910390a160019150506102dc565b7f5e3ac929e22fbde13b81612b73067d4e23e075be53bf8374f41c2db376c76067600060405180821515815260200191505060405180910390a1600090505b91905056fea264697066735822122075c1e02690d0cde8052eec514fdf2742cc47b15e49bb62e9136007f3338722c564736f6c634300060c0033",
  "immutableReferences": {},
  "source": "// SPDX-License-Identifier: MIT\npragma solidity 0.6.12;\n\n/// @title A puzzle creator\n/// @author dlsso\n/// @notice Returns the value stored in the contract to anyone who sends the correct answer\ncontract Puzzle {\n    bytes32 hashedAnswer;\n\n    /// @notice Logs whether or not the solve attemt was successful\n    /// @param success Boolean: whether or not the guess was successful\n    event LogSolveAttempt(bool success);\n\t\n    constructor(bytes32 answerHash) public payable {\n        hashedAnswer = answerHash;\n    }\n\n    /// @notice Returns the value stored in the contract to anyone who sends the correct answer\n    /// @param guess The user's guess what the answer of the puzzle is\n    /// @return Boolean: whether or not the guess was successful\n    function solve(string memory guess) public returns (bool) {\n\t\tif (keccak256(abi.encodePacked(guess)) == hashedAnswer) {\n\t\t\t// Correct! Send amount in contract to solver's address\n            (bool success, ) = msg.sender.call.value(address(this).balance)(\"\");\n            // Refund remaining gas if failed\n            require(success, \"Failed to send reward\");\n\t\t\temit LogSolveAttempt(true);\n\t\t\treturn true;\n\t\t}\n\t\t// Incorrect, notify failure\n\t\temit LogSolveAttempt(false);\n  \t    return false;\n    }\n}\n",
  "sourcePath": "/home/john/bootcamp/blockchain-developer-bootcamp-final-project/contracts/Puzzle.sol",
  "compiler": {
    "name": "solc",
    "version": "0.6.12+commit.27d51765.Emscripten.clang"
  },
  "schemaVersion": "3.4.3",
  "updatedAt": "2022-01-12T00:35:36.121Z",
  "devdoc": {
    "author": "dlsso",
    "events": {
      "LogSolveAttempt(bool)": {
        "params": {
          "success": "Boolean: whether or not the guess was successful"
        }
      }
    },
    "kind": "dev",
    "methods": {
      "solve(string)": {
        "params": {
          "guess": "The user's guess what the answer of the puzzle is"
        },
        "returns": {
          "_0": "Boolean: whether or not the guess was successful"
        }
      }
    },
    "title": "A puzzle creator",
    "version": 1
  },
  "userdoc": {
    "events": {
      "LogSolveAttempt(bool)": {
        "notice": "Logs whether or not the solve attemt was successful"
      }
    },
    "kind": "user",
    "methods": {
      "solve(string)": {
        "notice": "Returns the value stored in the contract to anyone who sends the correct answer"
      }
    },
    "notice": "Returns the value stored in the contract to anyone who sends the correct answer",
    "version": 1
  }
}